:100000000C9451070C9479070C9479070C94790798
:100010000C9479070C9479070C9479070C94790760
:100020000C9479070C9479070C9479070C94B22DF1
:100030000C9479070C9479070C9479070C94790740
:100040000C94422E0C9479070C9479070C94790740
:100050000C9479070C9479070C9479070C94790720
:100060000C9479070C947907080700382030203861
:100070000008070010003810280058300000000069
:100080000000000000000000000000000000000070
:100090000000000000000000000000000000000060
:1000A0000000000000000000000000000000000050
:1000B0000000000000000000000000000000000040
:1000C0000000000000000000000000000000000030
:1000D0000000000000000000000000000000000020
:1000E0000000000000000000000000000000000010
:1000F0000000000000000000000000000000000000
:1001000000000000000000000000000000000000EF
:1001100000000000000000000000000000000000DF
:100120000000000000000000000000000001F800D6
:10013000000000000000000001F8000000000000C6
:100140000000000606000000000000000000060697
:1001500000000000000000000006001F86061F8748
:10016000F800000006001F86061F87F80000000642
:100170000000660660660600000006000066066075
:10018000660600000006001FE60660660600000026
:1001900006001FE60660660600000006066061FEB7
:1001A00060660600000006066061FE6066060000EC
:1001B0000001F81FE0061F860600000001F81FE09E
:1001C000061F860600000000000007F8000000007F
:1001D000000000000007F800000000000000000020
:1001E000000000000000000000000000000000000F
:1001F00000000000000000000000000000000000FF
:1002000000000000000000000000000000000000EE
:1002100000000000000000000000000000000000DE
:1002200000000000000000000000000000000000CE
:1002300000000000000000000000000000000000BE
:1002400000000000000000000000000000000000AE
:10025000000000000000000000000000000000009E
:10026000000000000000000000000000000000008E
:10027000000000000000000000000000000000007E
:1002800000000000000000000000000058300000E6
:10029000000000000000000000000000000000005E
:1002A000000000000000000000000000000000004E
:1002B000000000000000000000000000000000003E
:1002C000000000000000000000000000000000002E
:1002D000000000000000000000000000000000001E
:1002E000000000000000000000000000000000000E
:1002F00000000000000000000000000000000000FE
:1003000000000000000000000000000000000000ED
:1003100000000000000000000000000000000000DD
:1003200000000000000000000000000000000000CD
:1003300000000000000000000000000000000000BD
:1003400000001FE00000000000000000001FE000AF
:100350000000000000000000601800000000000025
:100360000000006018000000000000000000679816
:10037000000000000000000000679800000000007E
:10038000000000006780000000000000000000671F
:100390008000000000000000000067F8000000007E
:1003A000000000000067F8000000000000000000EE
:1003B000601800000000000000000060180000004D
:1003C0000000000000001FE000000000000000002E
:1003D000001FE0000000000000000000000000001E
:1003E000000000000000000000000000000000000D
:1003F00000000000000000000000000000000000FD
:1004000000000000000000000000000000000000EC
:1004100000000000000000000000000000000000DC
:1004200000000000000000000000000000000000CC
:1004300000000000000000000000000000000000BC
:1004400000000000000000000000000000000000AC
:10045000000000000000000000000000000000009C
:10046000000000000000000000000000000000008C
:10047000000000000000000000000000000000007C
:10048000000000000000000000000000000000006C
:1004900000000000000000000000000000004849CB
:1004A00047482053434F5245530058309FFFFFFFAA
:1004B000FFFFFFFFFFFFF07FFFFFFFFDFFFFFFDFFD
:1004C000FC90B7FFFFFFFAFFE1FFAFFC10DFFFFF7B
:1004D000FFFDFFD7FF8FFE3037FFFFFFFFFFFFFF5E
:1004E0008FFF70FFFFFFFFFFFFFFFFFFFFF0C00068
:1004F000000000000000000030A00000000000002C
:100500000000005090000000000000000000908FEC
:10051000FFFFFFFFFFFFFFFFFF108800000000004C
:100520000000000110880000000000000000011021
:10053000880000000000000000011088000000009A
:100540000000000001108800000000000000000111
:10055000108800000000000000000110880000006A
:1005600000000000000110880000000000000000F2
:100570000110880000000000000000011088000049
:1005800000000000000001108800000000000000D2
:100590000001108800000000000000000110880029
:1005A00000000000000000011088000000000000B2
:1005B0000000011088000000000000000001108809
:1005C0000000000000000000011088000000000092
:1005D0000000000110880000000000000000011071
:1005E00088000000000000000001108800000000EA
:1005F0000000000001108800000000000000000161
:1006000010880000000000000000011088000000B9
:100610000000000000011088000000000000000041
:100620000110880000000000000000011088000098
:100630000000000000000110880000000000000021
:100640000001108800000000000000000110880078
:100650000000000000000001108800000000000001
:100660000000011088000000000000000001108858
:1006700000000000000000000110880000000000E1
:1006800000000001108FFFFFFFFFFFFFFFFFFF10C3
:100690009000000000000000000090A0000000009A
:1006A000000000000050C00000000000000000003A
:1006B00030FFFFFFFFFFFFFFFFFFFFF010043E00D2
:1006C0006300C1803E0008032050A808094060B0C4
:1006D000909090B0604008058040A0408010043E9B
:1006E00000C18063003E000803A850200809206074
:1006F000D0909090D0602008052040A040201004A9
:1007000049005D009C8022000809403080607060D4
:10071000803040100422009C805D004900080920C0
:10072000C01060E06010C0209B089F08A608AD08BC
:100730004869676877617920546F2048656C6C0060
:100740004C6576656C20446F776E00401E0000009B
:1007500000000000000000000000000000FFFFFF9C
:10076000FFFFFFC07F0000000000044044000000C5
:10077000000007DFFC01FF00000001111001110063
:10078000000001FFF001FF00000000000000440035
:10079000FFFFF00000007F008FFFF000000011005D
:1007A000BFFFF00000001F00FFFFF007C000000FB8
:1007B00000000F044000000900F00F1FC000000BF4
:1007C00001F80F110000000B03FC0F1F0000000BCD
:1007D0000E670F000003800F0D9B0F000003800FBA
:1007E0000E970F000003000F0FFF0F00000000F036
:1007F0000F0F00F0000000900E9700F00003F0B023
:100800000F9F00F0000260B00F6F00F0000380BF88
:100810000E070FF0000380BF0DFB0FF0000380FFF9
:1008200008010FF000F86FFF07FE0FFFFF1C7000BC
:1008300000000000001C7000000000000044657310
:1008400063656E7420696E746F2048656C6C000877
:100850000540A0E040A0080540006040A008054019
:1008600000E040A008054000C040A0080670A8F8BD
:1008700070D88808052070D87020080320D8A808F0
:100880000340A040080278A0080440A0E0E008046B
:10089000D8F87020080280800801C04D61700052B5
:1008A000657475726E005265636F7264005175698C
:1008B000740003053F213F1208120A100A0E1C0E95
:1008C0000C1E0C141A14161F161E131E1E1B1E1EA1
:1008D0001F1E3F213F3A2F3A173D173F213F181F58
:1008E00002040A041F0E04040E1F0A1F0A0E0E1F24
:1008F00004110E2E252E2F2A2E262929021F02082A
:100900001F08150E04040E150E15151B151B0406E5
:1009100004040C040000000017000300031F0A1F5A
:1009200016371A1904130A153A000300000E1111A4
:100930000E000A040A040E0400300004040400102F
:10094000001804031F111F121F101D151711151F6A
:1009500007041F17151D1F151D01011F1F151F1748
:10096000151F000A00003200040A110A0A0A110ABF
:10097000040115020E11171E051E1F150A0E110A7D
:100980001F110E1F15111F05010E111D1F041F1130
:100990001F1108100F1F041B1F10101F061F1E041D
:1009A0000F0E110E1F09060E112E1F051A12150922
:1009B000011F011F101F0F180F1F0C1F1B041B030B
:1009C0001C03191513001F11030418111F00020145
:1009D000022020200001020C121E1F120C0C121209
:1009E0000C121F0C1A14041E05242A1E1F021C14AC
:1009F0001D1020201D1F0814111F101E041E1E0292
:100A00001C0C120C3E0A040C123E1E040214160AA0
:100A1000020F120E101E0E100E1E081E120C1226B1
:100A2000281E322A26041E21001F00211E04010256
:100A3000013F213F05077F4141417F3E5B4F5B3EC8
:100A40003E6B4F6B3E183C783C18183C7E3C181CA3
:100A5000577D571C1C5E7F5E1C007E43437E007EDC
:100A600073737E007E7F7F7E7F4141417F30483AB5
:100A7000060E06297929067F4141417F60703F02B9
:100A8000042A1C361C2A7F3E1C080000081C3E7FDE
:100A900014227F22143C3C3C7EFF18423C817E3E67
:100AA0006375633E3E616B633E3E636B6B3E040267
:100AB0007F020410207F201008082A1C08081C2A26
:100AC0000808143E554122637569756310181C1897
:100AD00010040C1C0C04000000000000005F00006B
:100AE0000007000700147F147F14042A7F2A1023B4
:100AF0001308646236495620500008070300001CA2
:100B00002241000041221C002A1C3E1C2A08083EEB
:100B1000080800E06000000808080808006060009D
:100B20000060100804033E5149453E00427F4000EA
:100B300062514949462141494D331814127F10270B
:100B4000454545393C4A4949304121110907364953
:100B5000494936064949291E0000240000008064E6
:100B6000000008142241001414141414004122142B
:100B70000802015909063E415D594E7C1211127C52
:100B80007F494949363E414141227F4141221C7FF4
:100B9000494949417F090909013E414151327F08D4
:100BA00008087F00417F41002041413F017F081438
:100BB00022417F404040407F020C027F7F020408B8
:100BC0007F3E4141413E7F090909063E416141BEE8
:100BD0007F09192946264949493201017F01013F10
:100BE0004040403F1F2040201F3F4038403F63149B
:100BF00008146303047804036151494543007F41AD
:100C0000410003040810600041417F00040201021A
:100C100004808080808000030708002054547840BE
:100C20007F284444383844444428384444287F3892
:100C300054545418087E09090218A4A49C787F080B
:100C400004047800447D4000006080847D7F1010A3
:100C5000284400417F40007C047804787C08040428
:100C6000783844444438FC1824241818242418FCE8
:100C70007C080404080854545420043F4444203C95
:100C80004040207C1C2040201C3C4020403C44280C
:100C90001028444C9090907C4464544C4400083696
:100CA000410000007F0000004136080018040810D1
:100CB0000C7F4141417F0A4E6F2053442063617293
:100CC00064206F720A6E6F204C4F414445522E488B
:100CD00045580A0A153A45786974001D20466C612A
:100CE0007368696E670A20206C6F616465722E2ECE
:100CF0002E0A0A444F4E2754205455524E204F4638
:100D00004621006D560A0A504C454153450A545538
:100D1000524E204F4646004C4F57204241545445B6
:100D200052590A00177361766500166261636B00A1
:100D30001574797065000A0A0A153A6F6B6179209B
:100D4000163A6564697400596F7520656E74657232
:100D500065640A00540A03E181867F3E186D830FA3
:100D60000F0E0183866033186DC3198F1803C38E6D
:100D70006033186DE330CF1803C39E603630CDE387
:100D800060CF3006C79E7E3E30CDB360CF300CC6FC
:100D9000F6603330D9B660CF33CFCCF66061B0DBCC
:100DA0001E60CF30D86CE6C061B0DB1E618F199831
:100DB0006CC6C063B19B0E330F0FB078C6FF7E1FA9
:100DC0001B061E0F17534400161378001613140049
:100DD00015102000152010000000050089300802C1
:100DE00038024978681400004500680100000500D9
:100DF0006801380100000500380168010000F6E8CC
:100E0000DBCFC3B8AEA49B928A827B746E68625CAF
:100E100057524E4945413E3A3734312E2C29272529
:100E200023211F1D1C1A1917161514131211100F48
:100E30000E0D0C0B0A090807063D0E410E0101F7C5
:100E4000030101FF0300000000240027002A000026
:100E5000000000250028002B0000000000230026D1
:100E6000002900040404040404040402020202022F
:100E7000020303030303030102040810204080015E
:100E800002040810200102040810200000000700DE
:100E90000201000003040600000000000000000042
:100EA000120811241FBECFEFD8E0DEBFCDBF12E085
:100EB000A0E0B1E0E4E2FBE602C005900D92AC3D9B
:100EC000B107D9F717E0ACEDB2E001C01D92A23A2C
:100ED000B107E1F71EE0C2EADEE004C02297FE019E
:100EE0000E94ED34C03AD107C9F70E9470300C94CB
:100EF00090350C9400008AE290E090936303809315
:100F0000620388E190E0909365038093640321E09D
:100F100030E0309367032093660330936903209396
:100F200068038CE090E090936B0380936A033093A6
:100F30006D0320936C0385E090E090936F038093A2
:100F40006E033093710320937003309373032093E7
:100F5000720310927503109274031092770310922B
:100F6000760310927903109278030895EAE8F3E08B
:100F700020E030E08081882309F04CC08BE090E0D5
:100F8000289FF001299FF00D389FF00D1124E6579E
:100F9000FC4F81E0808380916C0390916D03928778
:100FA0008187009769F480916203909163030196B1
:100FB000928381838091640390916503019727C098
:100FC0008130910531F4809162039091630303961F
:100FD00017C08230910569F4809162039091630398
:100FE00001969283818380916403909165030596B5
:100FF0000EC00397B1F4809162039091630301974F
:101000009283818380916403909165030296948317
:10101000838308952F5F3F4F3B962E31310509F0B2
:10102000A9CF089510922D0310922C0388ED92E021
:1010300090932B0380932A030895CF93DF93CAE8FC
:10104000D3E08881813071F4E985FA85EE0FFF1FC6
:10105000E854FD4F208131818AE293E069814B8120
:101060000E947C1E2B9684E0C43DD80751F7DF9187
:10107000CF910895CF93DF93C4EDD4E08881813080
:1010800071F4E981FA81EE0FFF1FE75EFE4F2081C8
:1010900031818AE293E06B814D810E947C1E6396D0
:1010A00085E0C333D80751F7DF91CF910895CF93EF
:1010B000DF93C4E7D5E08881813071F4E981FA815A
:1010C000EE0FFF1FE15EFE4F208131818AE293E047
:1010D0006B814D810E947C1E279685E0C739D80719
:1010E00051F7DF91CF910895CF92DF92EF92FF9267
:1010F0000F931F93CF93DF93C4E7D5E06B817C817F
:101100004D815E81E981FA81EE0FFF1FE15EFE4FA6
:10111000208131810091620310916303E0906403A8
:10112000F0906503E0916C03F0916D03EE0FFF1FEB
:10113000EF5EFE4FC080D1808CED92E00E943A229B
:101140008823E1F188818130C9F589819A818130D4
:101150009105B1F0823091051CF4892B39F02EC035
:1011600082309105B9F0039749F51EC08091740350
:1011700090917503019690937503809374031DC03D
:1011800080917203909173030196909373038093FF
:10119000720313C080917003909171030196909334
:1011A00071038093700309C080916E0390916F0367
:1011B000019690936F0380936E031882279685E0C3
:1011C000C739D80709F09ACFDF91CF911F910F91BE
:1011D000FF90EF90DF90CF900895AF92BF92CF92A3
:1011E000DF92EF92FF920F931F93CF93DF93CAE8A2
:1011F000D3E08881813009F09AC089859A8500976B
:1012000039F48B819C812F813885821B930B13C00D
:101210008130910539F489819A812D813E81820F37
:10122000931F14C08230910549F48B819C812F81DA
:101230003885820F931F9C838B830AC0039741F4E8
:1012400089819A812D813E81821B930B9A838983A8
:1012500089819A8105978B34910538F48B819C8123
:101260008C32910514F408970CF4188224EDA22E08
:1012700024E0B22ED5018C91813009F04EC0139636
:101280006D917C91149715964D915C9116971196DE
:10129000ED91FC911297EE0FFF1FE75EFE4F20814C
:1012A000318109811A81EB80FC80E985FA85EE0F96
:1012B000FF1FE854FD4FC080D1808CED92E00E946A
:1012C0003A22882351F18AE293E062E00E94EF1B08
:1012D000D5011196ED91FC911297EE0FFF1FE75E7D
:1012E000FE4F208131818AE293E013966C9113972F
:1012F00015964C910E947C1E8AE293E061E00E9468
:10130000EF1BF50183859485209170033091710363
:10131000821B930B94878387188283E190E0A80E49
:10132000B91E93E3A91695E0B90609F0A3CF2B9651
:10133000A4E0C43DDA0709F05CCFDF91CF911F91A3
:101340000F91FF90EF90DF90CF90BF90AF900895F6
:101350002F923F924F925F926F927F928F929F92C5
:10136000AF92BF92CF92DF92EF92FF920F931F93B3
:10137000DF93CF9300D00F92CDB7DEB78091760385
:10138000909177030296909377038093760360E0C1
:1013900070E080E090E025E030E040E050E00E9426
:1013A000883270937B0360937A03882431C1A982C9
:1013B0008081882309F022C183E190E0A89E80010A
:1013C000A99E100DB89E100D11240C521B4FD80170
:1013D000E1E0ED937D0160E070E080E090E023E0EB
:1013E00030E040E050E00E948832D80112967C93B1
:1013F0006E931197B1E0B093990568E070E080E0DA
:1014000090E02BE430E040E050E00E948832F801A8
:101410007483638368E070E080E090E023E230E072
:1014200040E050E00E948832D80116967C936E937B
:101430001597E4EDF4E0FB83EA8399240D5F1F4FD9
:10144000380102E0202E312C260C371C2701D30155
:101450006D917C91F10140815181D201ED91FC911E
:10146000EE0FFF1FE75EFE4F20813181EA81FB8195
:1014700003811481E580F6800180F281E02DEE0F7A
:10148000FF1FE75EFE4FC080D1808CED92E00E948E
:101490003A22882351F0F9819F1639F0AA81BB8145
:1014A0008C91813011F4109299059394EA81FB811B
:1014B0007396FB83EA83F5E09F1649F6109299052F
:1014C00083E190E0A89E7001A99EF00CB89EF00CFC
:1014D0001124A4EDB4E0EA0EFB1EF7012181328154
:1014E000F901EE0FFF1FE20FF31FEE0FFF1FAF0119
:1014F00040545D4FDA018D919C91D7011C969C93CD
:101500008E931B97EE53FD4F808191811E969C9385
:101510008E931D97FA018481958150969C938E93AA
:101520001F972130310561F58701095F1F4F89E061
:1015300090E0E80EF91E6FEF7FEF8FEF9FEF21E055
:1015400030E040E050E00E948832D8016D937C93F7
:101550006FEF7FEF8FEF9FEF21E030E040E050E052
:101560000E9488329B01AC01F70171836083D8012E
:101570008D919C91892B09F04AC0232BE1F247C041
:101580002230310509F043C060E070E080E090E077
:1015900022E030E040E050E00E94883270937B030C
:1015A00060937A03672B91F468E070E080E090E04C
:1015B0002BE430E040E050E00E948832F701708771
:1015C0006783858196819287818721C068E070E07A
:1015D00080E090E023E230E040E050E00E9488327A
:1015E000D7011A967C936E93199713968D919C91BF
:1015F000149718969C938E93179709C00894A11C72
:10160000B11C7396B5E0AB16B10409F0D0CE83944B
:10161000282D30E080917A0390917B0328173907B9
:101620002CF4E4EDF4E0AA24BB24C1CE0F900F907B
:101630000F90CF91DF911F910F91FF90EF90DF906E
:10164000CF90BF90AF909F908F907F906F905F9062
:101650004F903F902F900895CF92DF92EF92FF929C
:101660000F931F93CF93DF937C016B0160E070E0D9
:1016700080E090E026E030E040E050E00E948832D8
:1016800070937B0360937A036130710509F07BC02E
:10169000E4E7F5E0C0E0D0E08081882309F06DC088
:1016A000FE0193E0EE0FFF1F9A95E1F7EC1BFD0B97
:1016B000EC58FA4F81E0808360E070E080E090E0D9
:1016C00029E030E040E050E00E9488329B017093B6
:1016D0007B0360937A03CB010797029728F410925B
:1016E0007B0310927A030FC02630310519F481E094
:1016F00090E005C02530310531F482E090E0909310
:101700007B0380937A038E0183E0000F111F8A957B
:10171000E1F70C1B1D0B0C581A4F80917A03909126
:101720007B03F8019283818360E070E080E090E0C9
:1017300025E030E040E050E00E9488329B01709349
:101740007B0360937A032E0D3F1DF80134832383BE
:1017500060E070E080E090E025E030E040E050E0C4
:101760000E9488329B0170937B0360937A032C0D57
:101770003D1DF8013683258306C021963796C53076
:10178000D10509F089CFDF91CF911F910F91FF9083
:10179000EF90DF90CF9008958F929F92AF92BF927B
:1017A000CF92DF92EF92FF920F931F93CF93DF932D
:1017B000C4EDD4E088248881813009F03BC38F8553
:1017C0009889181619061CF40197988B8F876B81DE
:1017D0007C814D815E81E981FA81EE0FFF1FE75E1A
:1017E000FE4F208131810091620310916303E090EC
:1017F0006403F0906503E0916C03F0916D03EE0FCC
:10180000FF1FEF5EFE4FC080D1808CED92E00E9402
:101810003A22882309F0EBC28F859889892B09F039
:10182000E6C289819A818130910509F434C1823000
:10183000910509F46AC1892B09F0CAC22B813C8148
:101840008091620390916303281739070CF041C01F
:101850002F5F3F4F3C832B8324EDA22E24E0B22E3A
:1018600099246B817C814D815E81E981FA81EE0F43
:10187000FF1FE75EFE4F20813181D50113960D9148
:101880001C9114971596ED90FC9016971196ED917A
:10189000FC911297EE0FFF1FE75EFE4FC080D180D4
:1018A0008CED92E00E943A22882359F0981449F076
:1018B000F5018081813029F48B819C8101979C8383
:1018C0008B83939483E190E0A80EB91E95E099165E
:1018D00041F62B813C8180916203909163038217D2
:1018E00093070CF041C0215030403C832B8314ED12
:1018F000A12E14E0B12E99246B817C814D815E81F3
:10190000E981FA81EE0FFF1FE75EFE4F20813181F2
:10191000D50113960D911C9114971596ED90FC909E
:1019200016971196ED91FC911297EE0FFF1FE75E4F
:10193000FE4FC080D1808CED92E00E943A22882335
:1019400059F0981449F0F5018081813029F48B8198
:101950009C8101969C838B83939483E190E0A80EF5
:10196000B91E95E0991641F62D813E818091640360
:1019700090916503821793070CF041C021503040CD
:101980003E832D8324EDA22E24E0B22E99246B8178
:101990007C814D815E81E981FA81EE0FFF1FE75E58
:1019A000FE4F20813181D50113960D911C91149722
:1019B0001596ED90FC9016971196ED91FC9112976B
:1019C000EE0FFF1FE75EFE4FC080D1808CED92E0EE
:1019D0000E943A22882359F0981449F0F501808139
:1019E000813029F48D819E8101969E838D8393940D
:1019F00083E190E0A80EB91E95E0991641F62D817D
:101A00003E818091640390916503281739070CF09B
:101A1000DFC12F5F3F4F3E832D8314EDA12E14E0D5
:101A2000B12E99246B817C814D815E81E981FA819F
:101A3000EE0FFF1FE75EFE4F20813181D501139627
:101A40000D911C9114971596ED90FC901697119698
:101A5000ED91FC911297EE0FFF1FE75EFE4FC080E5
:101A6000D1808CED92E00E943A22882359F098149C
:101A700049F0F5018081813029F48D819E810197A3
:101A80009E838D83939483E190E0A80EB91E95E028
:101A9000991641F69DC18B819C812F813885820FDB
:101AA000931F9C838B8329853A858D819E81820F2C
:101AB000931F9E838D83069734F488279927821B72
:101AC000930B9A8789878D819E8187973CF08985C2
:101AD0009A85909581959F4F9A8789878B819C8164
:101AE00005973CF48F819885909581959F4F9887B5
:101AF0008F838B819C818E3491050CF469C18F8119
:101B00009885909581959F4F61C12B813C818F81F4
:101B10009885281739070CF041C02F5F3F4F3C8351
:101B20002B8324EDA22E24E0B22E99246B817C819C
:101B30004D815E81E981FA81EE0FFF1FE75EFE4F66
:101B400020813181D50113960D911C911497159622
:101B5000ED90FC9016971196ED91FC911297EE0F77
:101B6000FF1FE75EFE4FC080D1808CED92E00E94A7
:101B70003A22882359F0981449F0F5018081813088
:101B800029F48B819C8101979C838B83939483E1BF
:101B900090E0A80EB91E95E0991641F62B813C8184
:101BA0008F819885821793070CF041C021503040F7
:101BB0003C832B8314EDA12E14E0B12E99246B816C
:101BC0007C814D815E81E981FA81EE0FFF1FE75E26
:101BD000FE4F20813181D50113960D911C911497F0
:101BE0001596ED90FC9016971196ED91FC91129739
:101BF000EE0FFF1FE75EFE4FC080D1808CED92E0BC
:101C00000E943A22882359F0981449F0F501808106
:101C1000813029F48B819C8101969C838B839394E2
:101C200083E190E0A80EB91E95E0991641F62D814A
:101C30003E8189859A85821793070CF041C0215017
:101C400030403E832D8324EDA22E24E0B22E992431
:101C50006B817C814D815E81E981FA81EE0FFF1FEE
:101C6000E75EFE4F20813181D50113960D911C91C5
:101C700014971596ED90FC9016971196ED91FC91A6
:101C80001297EE0FFF1FE75EFE4FC080D1808CEDF4
:101C900092E00E943A22882359F0981449F0F50105
:101CA0008081813029F48D819E8101969E838D8370
:101CB000939483E190E0A80EB91E95E0991641F641
:101CC0002D813E8189859A85281739070CF041C0FE
:101CD0002F5F3F4F3E832D8314EDA12E14E0B12ED4
:101CE00099246B817C814D815E81E981FA81EE0FBF
:101CF000FF1FE75EFE4F20813181D50113960D91C4
:101D00001C9114971596ED90FC9016971196ED91F5
:101D1000FC911297EE0FFF1FE75EFE4FC080D1804F
:101D20008CED92E00E943A22882359F0981449F0F1
:101D3000F5018081813029F48D819E8101979E83F8
:101D40008D83939483E190E0A80EB91E95E09916D7
:101D500041F62F8138858B819C8128173907C1F581
:101D600029853A858D819E812817390789F560E09C
:101D700070E080E090E022E030E040E050E00E943F
:101D8000883270937B0360937A03672B89F468E051
:101D900070E080E090E02BE430E040E050E00E9412
:101DA000883278876F838D819E819A87898710C05A
:101DB00068E070E080E090E023E230E040E050E056
:101DC0000E9488327A8769878B819C8198878F836C
:101DD00089819A81FC01EE0FFF1FE80FF91FEE0FBA
:101DE000FF1FE054FD4F84819581988B8F878B85F1
:101DF0009C8518161906F4F0188289819A81FC01D5
:101E0000EE0FFF1FE80FF91FEE0FFF1FE054FD4F0D
:101E1000848195812091760330917703820F931FFF
:101E200090937703809376036D817E818B819C8173
:101E30000E942C0B83946396A5E08A1609F0BBCC14
:101E4000DF91CF911F910F91FF90EF90DF90CF9096
:101E5000BF90AF909F908F9008959F92AF92BF9246
:101E6000CF92DF92EF92FF920F931F93CF93DF9366
:101E700001E0C02ED12C12E0A12EB12C9924939414
:101E800000C160E070E080E090E028E130E040E0F8
:101E900050E00E94883270937B0360937A0360E085
:101EA00070E080E090E022E030E040E050E00E940E
:101EB000883270937D0360937C03C0917A03D09144
:101EC0007B03FE01EE0FFF1FE65AFE4F208131819A
:101ED0002430310521F4D0927D03C0927C03FE01B1
:101EE000EE0FFF1FE457FE4F80819181049759F454
:101EF00010927D0310927C032430310521F4B092BE
:101F00007D03A0927C0380917C0390917D030097D8
:101F100009F049C0AE014F5F5F4FDE01AA0FBB1F42
:101F2000A85DBE4FFA01EE0FFF1FE85DFE4F2D9139
:101F30003C911197808191812817390709F480C05D
:101F400008E211E060E070E07F01FD01D7012D9112
:101F50003C91D8018D919C9111972817390739F43C
:101F60006417750721F0808191818D939C936F5F39
:101F70007F4F0E5F1F4F6931710541F7440F551FA9
:101F8000FA01E85DFE4FCC0FDD1FDE01A85DBE4FFC
:101F90008D919C9191838083C051DE4FD982C882FC
:101FA0004C5A5D4F4AC0019709F04AC0AE014B5FE1
:101FB0005F4FDE01AA0FBB1FA85DBE4FFA01EE0FF7
:101FC000FF1FE85DFE4F2D913C911197808191811B
:101FD00028173907A9F108E211E060E070E07F01FD
:101FE000FD01D7012D913C91D8018D919C911197C4
:101FF0002817390739F46417750721F0808191811A
:102000008D939C936F5F7F4F0E5F1F4F69317105FA
:1020100041F7440F551FFA01E85DFE4FCC0FDD1F5D
:10202000DE01A85DBE4F8D919C9191838083CE5D32
:10203000DD4FD982C88242545E4FFA01D182C082FC
:102040001092810310928003409128015091290140
:10205000E8E2F1E020E030E0808191814817590703
:1020600011F42F5F3F4F329681E0EA35F807A1F770
:1020700020938003309381032931310511F490922C
:10208000840380918403882309F4FBCE65C01092F9
:1020900081031092800360E070E080E090E029E12D
:1020A00030E040E050E00E948832DB0170937B0317
:1020B00060937A032091800330918103FB01EE0F3E
:1020C000FF1FE254FE4FAD01440F551F4A575D4FAD
:1020D00080819181019729F4AC30B10511F02F5F17
:1020E0003F4FF296E417F50799F72093800330935A
:1020F000810321303105A9F52AC063E070E080E05A
:1021000090E027E030E040E050E00E9488329B0100
:1021100070937F0360937E0380917A0390917B0399
:102120002E9DF0012F9DF00D3E9DF00D1124E80F26
:10213000F91FEE0FFF1FE85DFE4F80819181892B13
:1021400031F4D183C08310938503109284031091DE
:102150008403113031F4D1CF19E1E12EF12CC2E02A
:10216000D0E080918503882309F491CFDF91CF914E
:102170001F910F91FF90EF90DF90CF90BF90AF90A5
:102180009F9008958AE293E060E040E02AEA34E01C
:102190000E947C1E109234038AE293E062E00E9467
:1021A000EF1B81E08093320386E0809333036091DC
:1021B0007603709177038AE293E04AE050E00E9450
:1021C000E83160917403709175036A30710514F4FD
:1021D00081E201C08DE1809333038AE293E04AE01B
:1021E00050E00E94E83160917203709173036A308D
:1021F000710514F48EE201C08AE2809333038AE20F
:1022000093E04AE050E00E94E831609170037091E1
:1022100071036A30710514F48DE301C089E3809382
:1022200033038AE293E04AE050E00E94E831609193
:102230006E0370916F036A30710514F48AE401C073
:1022400086E4809333038AE293E04AE050E00E9400
:10225000E831E0916A03F0916B03EE0FFF1FE25447
:10226000FE4F808191810197B1F48AE293E066E2AA
:1022700046E02CEB36E00E947C1E8091800390911A
:102280008103019741F48AE293E068E247E026EC9B
:1022900036E00E947C1EE0916A03F0916B03EE0F22
:1022A000FF1FE051FE4F808191810197B1F48AE2D6
:1022B00093E06FE446E12BEC36E00E947C1E8091B7
:1022C000800390918103019741F48AE293E06FE4E7
:1022D00048E126ED36E00E947C1EE0916A03F09111
:1022E0006B03EE0FFF1FEE5DFD4F80819181019723
:1022F000B1F48AE293E066E24BE22DED36E00E9413
:102300007C1E8091800390918103019741F48AE2C1
:1023100093E068E24BE227EE36E00E947C1EE091FB
:102320006A03F0916B03EE0FFF1FEC5AFD4F8081A3
:1023300091810197B1F48AE293E061E046E12CEEED
:1023400036E00E947C1E809180039091810301976A
:1023500041F48AE293E062E048E127EF36E00E9430
:102360007C1EE0916A03F0916B03EE0FFF1FE254B5
:10237000FE4F80819181029741F48AE293E066E208
:1023800046E02EEF36E00E947C1EE0916A03F09159
:102390006B03EE0FFF1FE051FE4F8081918102978A
:1023A00041F48AE293E06FE446E128E037E00E94DE
:1023B0007C1EE0916A03F0916B03EE0FFF1FEE5D50
:1023C000FD4F80819181029741F48AE293E066E2B9
:1023D0004BE223E137E00E947C1EE0916A03F0911A
:1023E0006B03EE0FFF1FEC5AFD4F80819181029726
:1023F00041F48AE293E061E046E12DE137E00E949A
:102400007C1E8AE293E061E00E94EF1B08957F92B8
:102410008F929F92AF92BF92CF92DF92EF92FF92F4
:102420000F931F93CF93DF93B1E08B2E912CA2E3F8
:102430007A2E1AE41092810310928003CAE5D1E04B
:10244000F2E3EF2EF12CEC0EFD1EAA24BB24C45D9A
:10245000DE4FC880D980CC52D14081E0C816D1046B
:1024600009F06EC18AE293E061E00E94EF1B88816F
:102470009981BC01E3E0660F771FEA95E1F7680FE9
:10248000791F6F5FF70180819181AC0173E0440F88
:10249000551F7A95E1F7480F591F8AE293E029E02A
:1024A00009E00E94881C8AE293E060E00E94EF1B32
:1024B000CC59DF4F88819981C456D0408130910535
:1024C000E9F488819981BC0133E0660F771F3A9562
:1024D000E1F7680F791F6C5FF70180819181AC0192
:1024E00023E0440F551F2A95E1F7480F591F8AE250
:1024F00093E023E003E00E94881C06C0029721F4C9
:10250000D0928103C0928003CA56DF4F888199819F
:10251000C659D04081309105F1F488819981BC0180
:1025200003E0660F771F0A95E1F7680F791F695F6F
:10253000F70180819181AC01B3E0440F551FBA953A
:10254000E1F7480F591F4D5F8AE293E023E003E073
:102550000E94881C06C0029721F490928103809209
:102560008003C853DF4F88819981C85CD040813097
:102570009105F1F488819981BC01A3E0660F771F72
:10258000AA95E1F7680F791F6C5FF701808191814F
:10259000AC01F3E0440F551FFA95E1F7480F591FBE
:1025A0004A5F8AE293E023E003E00E94881C06C0B1
:1025B000029721F49092810380928003C650DF4FEE
:1025C00088819981CA5FD04081309105F1F488817A
:1025D0009981BC01E3E0660F771FEA95E1F7680F88
:1025E000791F6F5FF70180819181AC0173E0440F27
:1025F000551F7A95E1F7480F591F4D5F8AE293E026
:1026000023E003E00E94881C06C0029721F4909208
:1026100081038092800388819981BC0143E0660F29
:10262000771F4A95E1F7680F791F6E5FF701808188
:102630009181AC0133E0440F551F3A95E1F7480F03
:10264000591F4F5F8AE293E027E007E00E94881C51
:102650008AE293E061E00E94EF1B809180039091F9
:102660008103019709F588819981BC0123E0660FF8
:10267000771F2A95E1F7680F791F6E5FF701808158
:102680009181AC0103E0440F551F0A95E1F7480F13
:10269000591F4F5F8AE293E028E630E00E947C1EDB
:1026A000109281031092800380916A0390916B03D2
:1026B000A816B90609F044C08AE293E060E00E94DF
:1026C000EF1B88819981BC01B3E0660F771FBA9533
:1026D000E1F7680F791F6E5FF70180819181AC018E
:1026E000A3E0440F551FAA95E1F7480F591F4F5F0C
:1026F0008AE293E027E007E00E94881C8AE293E0E8
:1027000061E00E94EF1B88819981BC01F3E0660FB4
:10271000771FFA95E1F7680F791F6E5FF7018081E7
:102720009181AC01E3E0440F551FEA95E1F7480FB2
:10273000591F4F5F8AE293E021E730E00E947C1E40
:102740000894A11CB11C229682E090E0E80EF91ECC
:1027500099E1A916B10409F07ACE1092340370926F
:10276000330381E0809332038AE293E060E071E01A
:102770000E941A3210933303609182037091830395
:102780008AE293E04AE050E00E94E8318CED92E06A
:102790000E946A24882309F44DCE86EE92E064E01C
:1027A0000E943C1B882309F445CE8AE293E061E055
:1027B0000E94EF1BDF91CF911F910F91FF90EF903F
:1027C000DF90CF90BF90AF909F908F907F900895B3
:1027D00080919705909198050A973CF48AE293E0DE
:1027E00060E040E02AE730E006C08AE293E060E083
:1027F00040E02CE832E00E947C1E80919705909189
:10280000980544973CF0109227018CED92E064E12A
:102810000E9473218091970590919805019690935D
:102820009805809397050895CF92DF92EF92FF92DB
:102830000F931F93CF93DF936AE0C62EDD24D394CA
:102840005BE0E52EF12C8CED92E00E946A24882357
:10285000D1F3C0923303D09234038AE293E06EE95D
:1028600074E00E94F430109231031092330380918F
:102870002F038093340303E315E0C0E0D0E0F801B8
:1028800080819181892B31F48AE293E06DE20E948C
:10289000CC300DC0CE9DB001CF9D700DDE9D700D72
:1028A0001124635C7A4F8AE293E00E941A322091ED
:1028B0002E0330E0C901880F991F820F931F909556
:1028C00081959F4F8C5A80933303219680912F03DB
:1028D00090E09C01C29FC001C39F900DD29F900DBC
:1028E000112480933403F801619171918F018AE280
:1028F00093E04AE050E00E94FB31C530D10509F079
:10290000BECF86EE92E064E00E943C1B882379F4FF
:1029100086EE92E065E00E943C1B882341F486EE3F
:1029200092E066E00E943C1B882309F48CCF81E092
:1029300093E00E94D62DDF91CF911F910F91FF90D0
:10294000EF90DF90CF9008954F925F926F927F92B9
:102950008F929F92AF92BF92CF92DF92EF92FF92AF
:102960000F931F93DF93CF93CDB7DEB72A970FB6A0
:10297000F894DEBF0FBECDBF8CED92E069E675E046
:102980000E9428228AE293E064E37AE00E94111F09
:102990008CED92E069E675E04BE00E942325809182
:1029A00076039091770390933C0580933B05B9E3C0
:1029B000CB2EB5E0DB2EA3E0AA2EB12CFBE04F2EF0
:1029C000512C3E010894611C711C45010894811C26
:1029D000911CF6012081318182819381281739076A
:1029E00064F0E3E38E2EE5E09E2EAA24BB24CC24E3
:1029F000DD247BE0672E712C69C0A49C7001A59C2E
:102A0000F00CB49CF00C11248DE395E0E80EF91E57
:102A1000C301B7010E945235849C8001859C100D32
:102A2000949C100D1124035C1A4FC701B8010E9439
:102A30005235C801B3010E945235F601208131811F
:102A40008281938191838083338322838EEF9FEFF2
:102A5000C80ED91E0894A108B10891E3C91695E0E3
:102A6000D90609F0B2CFBDCFB8016C0D7D1D88E944
:102A700097E0F70141917F010E94362E0F5F1F4FB3
:102A80000A30110589F78AE090E0C80ED91E88E95E
:102A900097E0B601F40140810E94362E0894C11CD3
:102AA000D11CF401418188E997E0B6010E94362EDD
:102AB0000894A11CB11C82E090E0880E991E089435
:102AC000C11CD11C95E0A916B10471F0A69C70013F
:102AD000A79CF00CB69CF00C1124EDE3F5E0EE0E93
:102AE000FF1E00E010E0C0CF0E9414142A960FB61B
:102AF000F894DEBF0FBECDBFCF91DF911F910F9134
:102B0000FF90EF90DF90CF90BF90AF909F908F900D
:102B10007F906F905F904F9008956F927F928F9209
:102B20009F92AF92BF92CF92DF92EF92FF920F935C
:102B30001F93CF93DF9303E3802E05E0902EAA240A
:102B4000BB24CC24DD241BE0612E712C3BC0BE01D4
:102B50006C0D7D1D88E997E00E942F2EF80181936E
:102B60008F012196CA30D10591F7B601665F7F4F7C
:102B700088E997E00E942F2E082F10E0F4011183BE
:102B80000083B601655F7F4F88E997E00E942F2E92
:102B9000F82EEE24C701800F911FFFEF8F3F9F0794
:102BA00011F480E090E0F401819391934F01089437
:102BB000A11CB11C8CE090E0C80ED91E95E0A916AE
:102BC000B10461F0A69C8001A79C100DB69C100D6D
:102BD0001124035C1A4FC0E0D0E0B9CFDF91CF9150
:102BE0001F910F91FF90EF90DF90CF90BF90AF902B
:102BF0009F908F907F906F9008950E94A4148CED09
:102C000092E00E94F22208958CED92E00E941F242F
:102C100040918203509183034F5F5F4F5093830332
:102C2000409382038AE290E090936303809362036F
:102C300088E190E0909365038093640321E030E0A5
:102C400030936703209366033093690320936803EE
:102C50008CE090E090936B0380936A0330936D0354
:102C600020936C0380917603909177038C599F4F4A
:102C70009093770380937603EAE8F3E010823B9623
:102C800084E0E43DF807D1F7CA0162E070E00E94F9
:102C90009B34019749F48091D2029091D30203961C
:102CA0009093D3028093D202E8E2F1E0A6E8B2E08A
:102CB00080E090E0EA56FF4F11821082F296118276
:102CC0001082F29611821082F29611821082EC52DA
:102CD000F140808391831D921D9201963296893135
:102CE000910541F781E090E090939F0280939E02CE
:102CF0001092810310928003109284031092850336
:102D00000E942D0F8CED92E060E477E04EE10E948E
:102D1000882108958F929F92AF92BF92CF92DF92B7
:102D2000EF92FF920F931F93CF93DF938CED92E07E
:102D30000E946A24882309F43BC3809127018130D3
:102D400041F48CED92E06AE00E9473210E94E81346
:102D50002FC31092810310928003C4EDD4E001E0F0
:102D6000802E912C14E1A12EB12C8881813009F0A4
:102D70003FC06B817C814D815E81E981FA81EE0FDC
:102D8000FF1FE75EFE4F20813181009162031091A9
:102D90006303E0906403F0906503E0916C03F091AD
:102DA0006D03EE0FFF1FEF5EFE4FC080D1808CEDF4
:102DB00092E00E943A228823B9F0809178039091A2
:102DC00079031816190684F080916E0390916F03B1
:102DD0002D853E85821B930B90936F0380936E032A
:102DE000B0927903A092780390928103809280033D
:102DF000639685E0C333D80709F0B7CF86EE92E03B
:102E000062E041E00E94461B8823E1F08091660366
:102E1000909167032091620330916303820F931FA7
:102E2000909363038093620386EE92E064E041E056
:102E30000E94461B882331F481E090E090936D035B
:102E400080936C0386EE92E060E041E00E94461BB6
:102E50008823E1F0809162039091630320916603DF
:102E600030916703821B930B9093630380936203FB
:102E700086EE92E064E041E00E94461B882331F434
:102E800083E090E090936D0380936C0386EE92E074
:102E900063E041E00E94461B8823E1F080916803D3
:102EA000909169032091640330916503820F931F11
:102EB000909365038093640386EE92E064E041E0C2
:102EC0000E94461B882331F482E090E090936D03CA
:102ED00080936C0386EE92E061E041E00E94461B25
:102EE0008823D1F080916403909165032091680359
:102EF00030916903821B930B909365038093640365
:102F000086EE92E064E041E00E94461B882321F4B3
:102F100010926D0310926C0386EE92E064E041E043
:102F20000E94461B882351F16091860370918703AC
:102F3000809188039091890320E030E040E050E0E8
:102F40000E9413331816D4F080917203909173038A
:102F50006BEF7FEF0E949B34615F7F4F882777FD87
:102F60008095982F0E944533609386037093870362
:102F700080938803909389030E94B607E0908603AC
:102F8000F09087030091880310918903C801B7016D
:102F900020E030E040E050E00E94F533181684F461
:102FA000C801B70120E030E040E85FE30E94AE32A4
:102FB00060938603709387038093880390938903BB
:102FC00086EE92E066E00E943C1B882311F00E948E
:102FD000E519809164039091650306970CF059C040
:102FE0008091620390916303883291050CF451C083
:102FF0008B970CF04EC0A0916A03B0916B03FD015A
:10300000EE0FFF1FE254FE4F0190F081E02DE13002
:10301000F105D9F58091800390918103892BA9F561
:103020001597B0936B03A0936A03159610927405DD
:1030300010927B05109282051092890510929005DE
:10304000AA0FBB1FA458BD4F8D919C91892B11F4E1
:103050000E94A809E0916A03F0916B03EE0FFF1F35
:10306000EA57FD4F81E090E09183808386E290E013
:103070009093650380936403EAE8F3E010823B9643
:1030800084E0E43DF807D1F704C0329711F40E94C0
:103090000416809164039091650387970CF44FC0E8
:1030A0008091620390916303883291050CF447C0CC
:1030B0008B970CF044C0A0916A03B0916B03FD01A3
:1030C000EE0FFF1FEE5DFD4F0190F081E02DE1302E
:1030D000F10589F58091800390918103892B59F541
:1030E0001596B0936B03A0936A031597AA0FBB1FA5
:1030F000A057BD4F8D919C91892B11F40E94A80976
:10310000E0916A03F0916B03EE0FFF1FEA57FD4F4A
:1031100081E090E09183808386E090E09093650366
:1031200080936403EAE8F3E010823B9684E0E43D98
:10313000F807D1F704C0329711F40E940416809169
:1031400062039091630305970CF04FC08091640374
:1031500090916503893191050CF047C047970CF4B5
:1031600044C0A0916A03B0916B03FD01EE0FFF1FF5
:10317000EC5AFD4F0190F081E02DE130F10589F529
:103180008091800390918103892B59F51197B09319
:103190006B03A0936A031196AA0FBB1FAC57BD4FD8
:1031A0008D919C91892B11F40E94A809E0916A03EA
:1031B000F0916B03EE0FFF1FEA57FD4F81E090E0A7
:1031C000918380838CE490E0909363038093620307
:1031D000EAE8F3E010823B9684E0E43DF807D1F79B
:1031E00004C0329711F40E940416809162039091FA
:1031F00063038D3491050CF44FC08091640390916A
:103200006503893191050CF047C047970CF444C021
:10321000A0916A03B0916B03FD01EE0FFF1FE05117
:10322000FE4F0190F081E02DE130F10589F58091AC
:10323000800390918103892B59F51196B0936B030C
:10324000A0936A031197AA0FBB1FA857BD4F8D917A
:103250009C91892B11F40E94A809E0916A03F091D6
:103260006B03EE0FFF1FEA57FD4F81E090E0918363
:10327000808385E090E09093630380936203EAE8A3
:10328000F3E010823B9684E0E43DF807D1F704C0F8
:10329000329711F40E9404168091640390916503A3
:1032A000069734F486E090E090936503809364037E
:1032B0008091640390916503879734F086E290E0F3
:1032C00090936503809364038091620390916303FC
:1032D000059734F485E090E0909363038093620354
:1032E00080916203909163038D34910534F08CE4F6
:1032F00090E0909363038093620380916E039091BA
:103300006F031816190614F00E94FD150E94C210D2
:103310000E9457080E943A08E0916C03F0916D03F7
:10332000EE0FFF1FEF5EFE4F208131818AE293E0B6
:1033300060916203409164030E947C1E8091780337
:1033400090917903181619065CF50197909379030B
:10335000809378038AE293E062E00E94EF1B809101
:1033600078039091790362E070E00E949B340197AA
:10337000B9F4E0916C03F0916D03EE0FFF1FEF5E67
:10338000FE4F208131818AE293E060916203409197
:1033900064030E947C1E8AE293E061E00E94EF1BBE
:1033A0000E941D080E94ED080E9474080E94CC0B28
:1033B000DF91CF911F910F91FF90EF90DF90CF9011
:1033C000BF90AF909F908F9008958CED92E068E24F
:1033D00077E044E00E9402288130B1F082302CF482
:1033E0008F3F41F0882369F00895823081F0833067
:1033F000A9F410C08CED92E060E377E00E94C72A48
:1034000008950E94071208950E948A1608950E9446
:10341000141408958CED92E00E94F22208958CED30
:1034200092E06DE378E04BE457E00E9464298CED74
:1034300092E00E941F241092F402EAE8F3E082E096
:1034400090E0108296838583908787833B9624E063
:10345000E43DF207B1F70E942D0F0E947B0781E047
:1034600090E0909383038093820308958CED92E023
:103470000E94CC2A0E948D150E940F1A089588235D
:1034800019F48CB5806202C08CB58F7D8CBD089517
:103490009CB5937F982B9CBD08952CB5382F337025
:1034A0002C7F322B3CBD2DB590E095958795959559
:1034B000879581702E7F822B8DBD08958AE061E013
:1034C0000E940D308AE061E00E94A12F8CB58061DE
:1034D0008CBD8CB580648CBD8DE061E00E94A12F15
:1034E0008BE061E00E94A12F0895FC0181E08083C0
:1034F000089585E070E00E94412F08956F927F92B9
:103500008F929F92AF92BF92CF92DF92EF92FF92F3
:103510000F931F93CF93DF93EC0189819A818C01E4
:1035200024E0000F111F2A95E1F7081B190B85E114
:103530000E941F2FBC01600F711F84E07695679574
:103540008A95E1F77A8369838881882381F12E81C6
:103550003F816217730710F4B90106C08885998509
:103560008617970708F4BC0100D000D080E090E0F7
:1035700040E050E0E884F98400E010E0AD80BB2436
:10358000CC24DD246C80772488249924EDB7FEB701
:1035900061827282838294820E941D326B830F90BB
:1035A0000F900F900F9085E070E00E94412FDF9107
:1035B000CF911F910F91FF90EF90DF90CF90BF9030
:1035C000AF909F908F907F906F900895FC018CE357
:1035D0009FE09383828384E0818381E084870895E0
:1035E000CF93DF93EC018C8590E08F719070892BE5
:1035F00069F584E10E941F2FAA2797FDA095BA2F95
:10360000BC01CD010E94453326EE3FE34EEC50E471
:103610000E94F9330E9417339B01AC017B836A83BC
:103620006115710589F084E08983B901FE0120E00C
:10363000848195816817790710F429830AC02F5F68
:1036400032962430A9F702C08FEF89838C858F5F73
:103650008C87DF91CF910895FC0188E0808389E019
:10366000818387E0828386E0838384E0848382E0B1
:10367000858381E18683089520E0FC01E60FF11D3A
:103680008781813009F421E0822F0895E62FF0E050
:10369000423040F420E0E80FF91F878181508E3FCF
:1036A00088F40FC0E80FF91F87818F3F11F420E0E5
:1036B00009C020E090E0642F70E00E9487340197F9
:1036C00009F421E0822F08950F931F93CF93DF9386
:1036D000EC0110E00FEF888162E00E94A12F888149
:1036E0000E9440302F81892B19F42F5F2F8307C050
:1036F000222349F02F3F11F41F8201C00F838881DC
:1037000060E00E94A12F1F5F2196173021F7DF9103
:10371000CF911F910F910895FC01742F643508F02B
:103720005DC047FD5BC040330CF058C0878D8230D0
:1037300019F5842F859585958595992787FD909511
:10374000462F552747FD509524E530E0829FF00134
:10375000839FF00D929FF00D1124E40FF51FE656A4
:10376000FA4F808190E0272F277002C095958795AA
:103770002A95E2F780958170972F95959595959567
:10378000462F552747FD5095272F27708823A1F4F2
:10379000E4E59E02F0011124E40FF51FE656FA4F0E
:1037A00081E090E002C0880F991F2A95E2F780958A
:1037B0002081282320830895E4E59E02F00111244E
:1037C000E40FF51FE656FA4F81E090E002C0880F43
:1037D000991F2A95E2F72081282B20830895FC0168
:1037E000678F60A30895FC01678F40A30895AF928F
:1037F000BF92CF92DF92EF92FF920F931F93CF93DE
:10380000DF93EC01162FF42EE22EAA24402F552729
:1038100047FD50958F2D992787FD9095481B590B93
:1038200057FF03C0509541955F4F2E2D332727FD3D
:103830003095812F992787FD9095281B390B37FFED
:1038400003C0309521953F4F2417350744F4AA242F
:10385000A3948F2DF12E182F802F0E2DE82EE11618
:1038600034F48E2DE12E182F802F0F2DF82EDE2C04
:10387000D11A202F332727FD30958F2D992787FDCB
:103880009095281B390B37FF03C0309521953F4F8A
:10389000B22EF0161CF0CC24CA9402C0CC24C394DF
:1038A0008D2DD7FC8F5F082F059511C0AA2021F020
:1038B000CE016F2D412F03C0CE01612F4F2D0E94ED
:1038C0008C1B0B1907FF02C0FC0C0D0D1F5FE116CE
:1038D0006CF7DF91CF911F910F91FF90EF90DF90E8
:1038E000CF90BF90AF9008950F93042F322F262FC3
:1038F0002150230F0E94F71B0F9108950F93362F2D
:10390000042F0150020F232F0E94F71B0F910895DF
:103910009F92AF92BF92CF92DF92EF92FF920F935E
:103920001F93CF93DF936C01B62E942EA02EC0E090
:10393000D0E0E62EFF24E7FCF094022F112707FDCC
:1039400010950E0D1F1D06C0C601492D2A2D0E947F
:103950007E1C21966B2D6C0FCE018E0D9F1D801746
:10396000910794F3DF91CF911F910F91FF90EF900A
:10397000DF90CF90BF90AF909F9008952F923F928D
:103980005F926F927F928F929F92AF92BF92CF92EF
:10399000DF92EF92FF920F931F93DF93CF9300D0AC
:1039A00000D000D0CDB7DEB79E838D83C62ED42E37
:1039B000EE24E394E21A8EEF289F502C1124842EDB
:1039C0008A94962E9A94A42EA394B62EB394F22E93
:1039D000662423E0722E10E0C801847090709A83F0
:1039E0008983F801E270F070FC83EB8398E0292E64
:1039F000312C202231220170107054C0E7FC04C029
:103A0000FA94F2E05F0EE50C639489819A81892B28
:103A100071F04F2D4D0D8D819E816B2D0E948C1B61
:103A20006F2D6C0D8D819E814A2D0E948C1BEB8128
:103A3000FC81EF2B71F04D2D4F198D819E816B2DE7
:103A40000E948C1B6F2D6C0D8D819E81482D0E94D4
:103A50008C1B2114310471F06C2D6F198D819E81A6
:103A60004A2D0E948C1B4F2D4D0D8D819E81692DFD
:103A70000E948C1B0115110571F06C2D6F198D8141
:103A80009E81482D0E948C1B4D2D4F198D819E814A
:103A9000692D0E948C1BE70CF2E07F0E8A949A94A9
:103AA000A394B3946F140CF4A9CF26960FB6F89490
:103AB000DEBF0FBECDBFCF91DF911F910F91FF9061
:103AC000EF90DF90CF90BF90AF909F908F907F90BE
:103AD0006F905F903F902F9008954F925F926F92FA
:103AE0007F928F929F92AF92BF92CF92DF92EF928E
:103AF000FF920F931F93CF93DF93EC01A62E742EAA
:103B00009E2DFF24F394F21A8EEF289F802C11240F
:103B1000B42EBA9453E0C52ECE0CE22EDD2443E041
:103B2000942E10E031E0432E512C40225122692E78
:103B300063940270107034C0F7FC04C0EA9482E011
:103B4000880EF80CD3944114510489F06D2D6A0D40
:103B5000472D4E192E2D220F260DCE010E947E1CC0
:103B60006E2D6A0DCE014B2D2C2D0E947E1C011551
:103B7000110589F06A2D6D19472D4E192E2D220F32
:103B8000260DCE010E947E1C6A2D6E19CE014B2D92
:103B90002C2D0E947E1CF90C82E0980EBA94C80E5F
:103BA000DE1454F2DF91CF911F910F91FF90EF90AF
:103BB000DF90CF90BF90AF909F908F907F906F904D
:103BC0005F904F9008957F928F929F92AF92BF9295
:103BD000CF92DF92EF92FF920F931F936C01962E7C
:103BE000A42EF22E7E2C760E1EEFE19E102D1124B7
:103BF000812E820E672D282D0E94741CB02EBA0CC7
:103C0000BA94C601672D4B2D282D0E94741CAE0C52
:103C1000100FC601692D4A2D212F0E947E1CF90C20
:103C2000FA94C6016F2D4A2D212F0E947E1CC601D9
:103C3000672D4A2D2E2D01E00E94BE1CFE18C601E4
:103C40006F2D4A2D2E2D02E00E94BE1CBE18C6010B
:103C50006F2D4B2D2E2D04E00E94BE1CC601672D3A
:103C60004B2D2E2D08E00E94BE1C1F910F91FF903E
:103C7000EF90DF90CF90BF90AF909F908F907F900C
:103C800008958F929F92AF92BF92CF92DF92EF9260
:103C9000FF920F931F936C01162FA42E922EF02EDD
:103CA000BE2C8E2C860E2EEFE29EE02C11242E2DA3
:103CB000290D682D0E94881CAB0CFA94FE0C115043
:103CC000190D1B19C601612F4A2D2B2D01E0EF2C78
:103CD0000E946D1DC601682D4A2D2B2D02E00E9409
:103CE0006D1D1F910F91FF90EF90DF90CF90BF90CF
:103CF000AF909F908F9008953F924F925F926F92F6
:103D00007F928F929F92AF92BF92CF92DF92EF926B
:103D1000FF920F931F93CF93DF934C01362E442EC7
:103D2000F901A490319654906F010894C11CD11CE4
:103D30008A2D992787FD9095079668E070E00E948C
:103D40009B34E62EFF24E7FCF09400E0C0E0D0E0D6
:103D500060E8662E712C26C0E12FE595E595E59586
:103D6000FF27E7FDF095EC0FFD1FEC0DFD1DE49125
:103D70002E2F30E0812F8770A30102C05595479503
:103D80008A95E2F724233523232B31F0612F630D2D
:103D9000C4014B2D0E948C1B1F5F1A15ECF20F5FA4
:103DA000CE0DDF1D051524F410E0B02EB40CF5CFB8
:103DB000DF91CF911F910F91FF90EF90DF90CF9007
:103DC000BF90AF909F908F907F906F905F904F903B
:103DD0003F900895FB018491E42FE695E695E695E2
:103DE000F0E0329690E00796A3E095958795AA9526
:103DF000E1F730E0DC01A29FC001A39F900DB29FCC
:103E0000900D1124E80FF91FE60FF71FE49147709A
:103E100080E890E002C0959587954A95E2F78E2359
:103E20000895DC01FB0184918F5F14968C931497A5
:103E3000319684918F5F15968C93159731965E9687
:103E4000FC93EE935D9708953F924F925F926F922D
:103E50007F928F929F92AF92BF92CF92DF92EF921A
:103E6000FF920F931F93CF93DF93EC01862EA42E26
:103E7000422F102F3F8C23E526170CF4ABC03FE2F6
:103E80003A150CF4A7C0C02EDD248C8190E0019778
:103E90009C01C29EC001C39E900DD29E900D112424
:103EA000262F332727FD3095820F931F18161906EA
:103EB0000CF090C08D8190E09C01C29EC001C39E19
:103EC000900DD29E900D11242A2D332727FD309579
:103ED000820F931F181619060CF07CC09924442EEB
:103EE00055246DC09C01215030404217530711F4F6
:103EF00060E00EC0429EC001439E900D529E900D08
:103F00001124840F951FED8DFE8DE80FF91F64912C
:103F10004C9DC0014D9D900D5C9D900D1124682C11
:103F2000680EBB24792C780C3FC0E62EFF2460FF7E
:103F300019C0113039F44B2D4A0DCE01672D0E9466
:103F40008C1B2EC02C9DC0012D9D900D3C9D900D75
:103F500011244A2D480FCE01662D212F012F0E94DA
:103F6000881C1EC098A18F8D9817D1F09F8F11309B
:103F700039F44B2D4A0DCE01672D0E948C1B0FC0CA
:103F80002C9DC0012D9D900D3C9D900D11244A2D1E
:103F9000480FCE01662D212F012F0E94881C3F8ED5
:103FA000F594E7946E2DB3942B2D332727FD309590
:103FB0008D8190E0281739070CF4B7CF9394492DE1
:103FC000552747FD50958C8190E0481759070CF410
:103FD00089CF3F8EDF91CF911F910F91FF90EF908E
:103FE000DF90CF90BF90AF909F908F907F906F9019
:103FF0005F904F903F9008950F93CF93DF93EC0124
:10400000262F6A3049F48D819885899F802D11244F
:104010009A85980F9A8726C06D3029F169854A855F
:1040200008850E94241F9C816885969F402D11243D
:104030008985480F49878F818823A9F0552747FD37
:104040005095699F9001112484E590E0821B930BA9
:104050008417950744F49D81699F902D11248A85CA
:10406000890F8A87198681E090E0DF91CF910F91C7
:1040700008951F93CF93DF93EC01162FF8948E854C
:1040800060E00E940D308F8518161CF460E00E94DD
:104090000D301EBD0DB407FEFDCF8EB58F851816F1
:1040A0001CF461E00E940D307894DF91CF911F9154
:1040B0000895FF920F931F93CF93DF93EC01FF249A
:1040C00000E010E06F2D6064CE010E943920CE0127
:1040D00060E80E9439208E8561E00E940D308F8556
:1040E00018161CF460E00E940D30F801E656FA4FF5
:1040F00090E080818EBD0DB407FEFDCF8EB59F5F31
:1041000031969435B1F78F8518161CF461E00E9442
:104110000D30F3940C5A1F4F86E0F81699F6CE0135
:1041200060E40E943920DF91CF911F910F91FF90A1
:104130000895CF93DF93DC0188EF91E0EAE9F5E0A1
:10414000EF019C01199221503040E1F719961C9221
:1041500019971A961C92DF91CF910895EF920F93C1
:10416000CF93DF93EC014D876C872E87E88A0F870A
:1041700081E088878F8F18A28F83CE0162EB78E071
:104180000E94111F0E945E1A81E00E943F1A85E082
:104190000E944D1A8CE00E94481A8D8561E00E94B1
:1041A000A12F8C8561E00E94A12F8E8561E00E9485
:1041B000A12F888918161CF461E00E94A12F8F8519
:1041C00018161CF461E00E94A12F888918166CF45F
:1041D00060E00E940D306AE070E080E090E00E94B4
:1041E000BE2E888961E00E940D30EC852E2F33278A
:1041F00027FD3095F901ED59F14FE491F0E0EE0F14
:10420000FF1FE15BF14F859194919C8B8B8B29581B
:10421000314FF90184918A8FED852E2F332727FDA9
:104220003095F901ED59F14FE491F0E0EE0FFF1FE9
:10423000E15BF14F859194919A8B898B2958314F8D
:10424000F9018491898FEF852E2F332727FD309533
:10425000F901ED59F14FE491F0E0EE0FFF1FE15B42
:10426000F14F859194919E8B8D8B2958314FF90197
:1042700084918B8FEE852E2F332727FD3095F90102
:10428000ED59F14FE491F0E0EE0FFF1FE15BF14FCC
:1042900085919491988F8F8B2958314FF901849192
:1042A0008C8FCE0161E20E943920CE0164E10E9430
:1042B00039208B8587FF02C08FE78B876B8560680D
:1042C000CE010E943920CE0160E20E943920CE0149
:1042D0006CE00E943920CE010E945920DF91CF91DD
:1042E0000F91EF900895FC01262FE258FF4F88EEC2
:1042F00093E070E00E949B346083EE57F040822F81
:1043000064E10E947B34882309F481E081A7089549
:10431000FC01ED57FF4F61937193445F4083089513
:10432000CF93DF93DC01E0E8F7E785919491ED010D
:10433000C75ADF4FAD0141595F4F8150904C09F092
:104340004EC0E6E9F7E7E491E883E7E9F7E7E491AF
:104350001496EC931497E8E9F7E7E4911596EC933B
:104360001597E9E9F7E78591949117969C938E93B9
:104370001697EBE9F7E78591949119969C938E93A4
:104380001897EDE9F7E7E4919B96EC939B97EEE99C
:10439000F7E7E4919A96EC939A97EFE9F7E7E491BF
:1043A000EA01E883E0EAF7E7859194915D969C93B2
:1043B0008E935C97E2EAF7E7859194915F969C93E0
:1043C0008E935E97E4EAF7E78591949191969C939A
:1043D0008E939097E6EAF7E78591949132C08CE34B
:1043E000888314961C9214972FEF15962C9315978B
:1043F00080E293E017969C938E93169784ED93E05A
:1044000019969C938E93189781E09B968C939B971B
:104410009A968C939A97FA0120838CEA9DE05D9698
:104420009C938E935C978EED9DE05F969C938E930C
:104430005E9784E79EE091969C938E9390978CE391
:104440009FE093969C938E939297DF91CF910895DE
:10445000E0E8F7E7859194918150904C51F4DB01AD
:10446000EBE8F7E784918D93319687E7E539F80714
:10447000C9F708952F923F924F925F926F927F9269
:104480008F929F92AF92BF92CF92DF92EF92FF9264
:104490000F931F93DF93CF9300D000D0CDB7DEB73B
:1044A0009A838983F9018491482E55243196849109
:1044B0003197FC83EB83F60124910894C11CD11C35
:1044C000F60134910894C108D1085201A60EB71E16
:1044D0000A151B050CF06BC0D801A20FB11D6A179D
:1044E0007B070CF064C0682E7724C301840F951FEE
:1044F000E816F9060CF05BC0F701E30FF11D4E174B
:104500005F070CF054C0601771071CF088249924D1
:1045100003C04801861A970A4E155F051CF020E07B
:1045200030E003C09701241B350BAA16BB0614F418
:10453000120103C01D01261A370A8E179F0714F4B3
:10454000230103C02F01441A550AB22E69807A80D4
:104550002EE430E0620E731E342F3E19E32EEB0C76
:10456000A82CF62EF01AF80C1DC01A2D0F2D13C012
:10457000C3016B817C81412F2B2D0E94EA1E882371
:1045800071F1C301B601402F2E2D0E94EA1E88232F
:1045900031F181E00DC0812F90E08215930544F345
:1045A000B394E3948B2D90E084159505F4F280E0AC
:1045B0000F900F900F900F90CF91DF911F910F915F
:1045C000FF90EF90DF90CF90BF90AF909F908F9033
:1045D0007F906F905F904F903F902F9008951F5F56
:1045E0000F5FD9CFEF92FF920F931F93CF93DF937B
:1045F0007C018C01025B1F4FC8010E949920C801F9
:104600006BED7CE00E94A930C8010E94592083E034
:104610000E944D1A86E091E0EEEFFFE3099584E5F4
:1046200090E0E80EF91EF7011082C80166EB7CE00D
:104630000E94F430C8010E945920E701CA54D040BA
:10464000CE010E94641BCE0164E00E943C1B8823C3
:1046500039F462E370E080E090E00E94BE2EF0CF7B
:10466000DF91CF911F910F91FF90EF9008950F93DD
:104670001F93CF93DF93EC018C01025B1F4FC801A6
:1046800061E040E00E94F31BFE01E95AFF4FCE5A61
:10469000DF4F85E59881891B808326961882C8554F
:1046A000D040698D613009F43EC0613028F0888DBA
:1046B000653008F051C04BC0CE0185960E94D12BC9
:1046C000CE0160E00E94791AC8010E949920CA5A5E
:1046D000DF4F81E08883C655D040C80167E17DE0A7
:1046E0000E94A9306A8D7B8DC8014AE050E00E948B
:1046F0009731C80163E07DE00E94A930C8010E94A3
:10470000592083B7817F846083BF83B7816083BF73
:1047100083B7816083BF889583B78E7F83BF83B75C
:104720008E7F83BF1FC0C059DF4F88819981AA81C6
:10473000BB818F709070A070B0700897A105B10513
:1047400018F4C80167E00CC0C80168E709C08823F5
:1047500049F06B5FC80104C0882321F0C8016FE2F3
:104760000E94CC30DF91CF911F910F910895AF92AD
:10477000BF92CF92DF92EF92FF920F931F93CF934E
:10478000DF93EC01CB57DF4F8881C558D040882399
:1047900009F44AC08C3010F010E002C01CE0181B75
:1047A000CA5ADF4F81E08883C655D0406EE4C62EDA
:1047B000D12CCC0EDD1EC60160E00E94EF1B53E53C
:1047C000A52EB12CAC0EBD1EF50100814DE2F42EDC
:1047D0004F2D401B410F0D5FC60160E024E533E023
:1047E000E32E0E94411EC60161E00E94EF1BF5010D
:1047F0000081F01AF10E0D5FC60160E04F2D24E537
:104800000E94E31DC95ADF4F84E08993F50180813E
:10481000181B115D1883AB9669917991C6010E94AE
:10482000A930888181508883DF91CF911F910F91AA
:10483000FF90EF90DF90CF90BF90AF9008954F9290
:104840005F926F927F928F929F92AF92BF92CF9220
:10485000DF92EF92FF920F931F932C01FC01628C69
:10486000738C60947094882499240E94982E5B0124
:104870006C010E94982E7B018C01F20141805280D4
:104880000E94982E460E571EA094B094C094D094C7
:10489000E094F09400951095C601B501A801970128
:1048A0000E945C34A40193010E945C34460E571EA2
:1048B000C2010E94A6321F910F91FF90EF90DF90EE
:1048C000CF90BF90AF909F908F907F906F905F90B0
:1048D0004F900895AF92BF92CF92DF92EF92FF92E6
:1048E0000F931F93CF93DF93EC01EFE7AE2EB12C24
:1048F000A80EB91EF501E080F180028113810E94AB
:104900008A2EE61AF70A080B190B7EE7C72ED12C60
:10491000CC0EDD1EF601808190E0A0E0B0E08E15A7
:104920009F05A007B10708F081C08E0106581F4FF0
:10493000F80180819181A281B3810097A105B10521
:1049400009F474C00E948A2EF6012081620F711D45
:10495000811D911DF5016083718382839383FE0124
:10496000E059FF4F80819181A281B3810196A11D01
:10497000B11D80839183A283B383F80110821182D9
:10498000128213820E94982ECA58DF4F688379835F
:104990008A839B83C657D040CE010E947E1ACE01E7
:1049A0000A960E94641BCE0148960E94F01A81E08C
:1049B00032C08E010B5D1F4FC8010E941F2CC80121
:1049C0000E94962CC8010E94792DCE010E94B72327
:1049D000CE010E9437238E01025B1F4FC8010E9447
:1049E0005920CC5ADF4F8881C455D040882319F410
:1049F000C8010E9499200E94982EC658DF4F6883F4
:104A000079838A839B83249728813981621B730B66
:104A10007A936A9380E0DF91CF911F910F91FF907D
:104A2000EF90DF90CF90BF90AF900895C658DF4FC2
:104A300088819981AA81BB81CA57D0400097A1057E
:104A4000B10541F7B6CF2F923F924F925F926F928E
:104A50007F928F929F92AF92BF92CF92DF92EF920E
:104A6000FF920F931F93DF93CF93CDB7DEB7689775
:104A70000FB6F894DEBF0FBECDBF5C017B876A879F
:104A80004C8724E530E0A20EB31ED5011C92ECEA5F
:104A9000FFEFAE0EBF1E842F90E0FB01E80FF91F61
:104AA000319710825AE0452E512C4A0C5B1C45E28E
:104AB000642E712C6A0C7B1C3EE4C32ED12CCA0CD4
:104AC000DB1CF4E5FA8320E329831D821C8232E09B
:104AD0003B8323E5822E912C8A0C9B1C02E5202E21
:104AE000312C2A0C3B1CA501495A5F4F5E874D872C
:104AF000B501685A7F4F788B6F87D501A059BF4F9A
:104B0000BA8BA98B9C8B8B8B01979E8B8D8BC50150
:104B10000E946A248823D9F3C20163E044E00E9422
:104B2000461B882331F0BB81BF5FBB83C3010E945A
:104B3000E22DC20161E044E00E94461B882331F06F
:104B4000EB81E150EB83C3010E94E22DC20162E0E0
:104B500044E00E94461B882331F0FC81FF5FFC8308
:104B6000C3010E94E22DC20160E044E00E94461BA6
:104B7000882331F02C8121502C83C3010E94E22D27
:104B80003C81303111F41C8205C04C814F3F11F43F
:104B90005FE05C836B81683011F41B8205C07B8110
:104BA00077FF02C087E08B83AC81BB27A7FDB09560
:104BB000B987A887D401EC912B81332727FD309545
:104BC0003F832E83D1018C9190E08095909528852C
:104BD0003985AC01249FC001259F900D349F900D15
:104BE0001124895D992787FD90955A81252F3327B8
:104BF00027FD3095820F931F62E070E00E949B3486
:104C00006A8384E18E1BF0E0E095F0956E817F81F0
:104C10006E9F90016F9F300D7E9F300D1124820F8B
:104C2000992787FD90957981272F332727FD309588
:104C3000820F931F62E070E00E949B346983C2017F
:104C400064E00E943C1B882399F18D81282F332733
:104C500027FD3095AD89BE892A173B07BCF48E81AC
:104C60009F8114E0880F991F1A95E1F7BC818B0F83
:104C700009F44DCF8A3009F44ACF8D3009F447CF7B
:104C8000EA85FB85E20FF31F80831182ED81EF5FE0
:104C9000ED83C3010E94D62DFD818F2F992787FDBB
:104CA00090952B893C892817390714F43C853D835E
:104CB000C20165E00E943C1B8823A9F04D81415050
:104CC0004D83C3010E94DC2D5D8157FF02C01D8210
:104CD0000AC06D81E62FFF27E7FDF0958A859B8549
:104CE000E80FF91F1082C20166E00E943C1B882376
:104CF00009F442C0C3010E94D62DC5010E946A2456
:104D00008823D9F3C60167E47DE00E94F430C60130
:104D10006A857B850E941A32C60166E37DE00E94A7
:104D2000F430C20164E00E943C1B8823E1F0C3011F
:104D30000E94D62D68960FB6F894DEBF0FBECDBF89
:104D4000CF91DF911F910F91FF90EF90DF90CF9067
:104D5000BF90AF909F908F907F906F905F904F909B
:104D60003F902F900895C20165E00E943C1B88236C
:104D700021F2C3010E94DC2DEE24FF2410E033C099
:104D8000D1018C9190E00196EF89F88D9C01E29F12
:104D9000C001E39F900DF29F900D11246A81680F6E
:104DA000D4018C9190E00196FC01EE9EC001EF9E33
:104DB000900DFE9E900D11244981480F2F89210FDF
:104DC000C60101E00E94241F2F89388D2F5F3F4FBD
:104DD000388F2F8B2031310599F60894E11CF11C96
:104DE000105F103819F0188E1F8ACACFD1018C912C
:104DF000BAEF8B9F802D11248250EA818E0FAD85F2
:104E0000BE858C93F40180818F5FF9818F0FAF8510
:104E1000B8898C93C60160E37DE00E94A930F1015E
:104E20008081FAEF8F9F802D112482502A81820F7A
:104E3000AD85BE858C93F401808190E00196880F4A
:104E4000991FF9818F0FAF85B8898C93C6016AE2EB
:104E50007DE00E94A930F1018081FAEF8F9F802DC3
:104E6000112482502A81820FAD85BE858C93F40176
:104E7000208130E02F5F3F4FC901880F991F820FBB
:104E8000931FF9818F0FAF85B8898C93C60164E2B7
:104E90007DE00E94A930C60160E00E94EF1BF10195
:104EA000808190E0019628853985289FB001299F4F
:104EB000700D389F700D112461503A81630FD40139
:104EC0008C9190E00196EE81FF81E89FA001E99F1F
:104ED000500DF89F500D11244250F9814F0FC6011B
:104EE00027E00E94741CC60161E00E94EF1BD10103
:104EF0002C91822F90E0F40100810196488559851C
:104F0000489F7001499FF00C589FF00C11245EEFF0
:104F1000E50E6A81E60E402F50E04F5F5F4FAE8195
:104F2000BF81A49FF001A59FF00DB49FF00D112447
:104F3000E350B981EB0F2E5F029762E070E00E94B0
:104F40009B34280F0B5FC6016E2D4E2FF3E0EF2E22
:104F50000E94E31DF40180814EE2481BC60160E01F
:104F600024E50E94741CC60160E00E94EF1BD4017E
:104F70000C914FE2401B0F5FC60160E024E50E94E8
:104F8000881CED85FE851082D4018C91B0E3B81B9E
:104F9000EF85F889B083C60161E00E94EF1BC6016E
:104FA0006A857B850E941A32E989FA89808191811C
:104FB000A281B38187709070A070B0700497A10532
:104FC000B10508F0A4CDFD812F2F332727FD3095A3
:104FD0004D895E89241735070CF099CDD1018C914C
:104FE00090E0289FB001299F700D389F700D11240B
:104FF000F401808140E3481BC6012FE501E00E94D7
:10500000241F85CD2F923F924F925F926F927F9295
:105010008F929F92AF92BF92CF92DF92EF92FF92C8
:105020000F931F93DF93CF93CDB7DEB762970FB681
:10503000F894DEBF0FBECDBF6C016C837D834B83C4
:1050400024E530E0C20ED31EF60110822CEA3FEFB9
:10505000C20ED31E1AE0A12EB12CAC0CBD1CB5E2C1
:105060002B2E312C2C0C3D1CAEE44A2E512C4C0C1A
:105070005D1C1A823FEF398310E0F0E37F2E662437
:10508000A601495A5F4F5F834E83C601885A9F4FDE
:1050900099878887F601EA5AFF4FFB87EA879601CE
:1050A0002B5A3F4F3D872C87E3E58E2E912C8C0C9D
:1050B0009D1C5B81452F50E05F874E878B8181501F
:1050C000888BC6010E946A248823D9F3C50164E055
:1050D0000E943C1B882369F4C50165E00E943C1BCB
:1050E000882339F4C50166E00E943C1B882309F43B
:1050F000D3C0F4010081C50164E00E943C1B8823F9
:1051000029F0C1010E94D62D1983CBC0C1010E9494
:10511000DC2DC7C0C50163E044E00E94461B882324
:1051200021F01F5FC1010E94E22DC50161E044E052
:105130000E94461B882321F01150C1010E94E22DDC
:10514000812F992787FD90952E853F85821793079C
:1051500011F410E002C017FD1889F4018081819FCD
:10516000902D11248C5F682E691A28C0872D9927ED
:1051700087FD9095262D332727FD3095821B930BB5
:105180000297D4F4898162960FB6F894DEBF0FBE01
:10519000CDBFCF91DF911F910F91FF90EF90DF90E6
:1051A000CF90BF90AF909F908F907F906F905F90C7
:1051B0004F903F902F900895F1E0FA83862D992724
:1051C00087FD9095272D332727FD3095820F931F5C
:1051D00062E070E00E949B34762EEE81FF811082A7
:1051E000E885F985608321E0EA85FB852083EC85ED
:1051F000FD8510822C813D81C9019A8B898B00E04D
:10520000E12EFF24E7FCF09420C0802F90E08E1563
:105210009F0569F423E0EE81FF812083F401808102
:105220008E9D802D1124870DE885F9858083E9897D
:10523000FA8965917491C2010E94F4300F5F298947
:105240003A892E5F3F4F3A8B298B3B810317E8F257
:10525000C20160E00E94EF1BF40140814E9D402D91
:1052600011244150470DC20160E024E50E94741CE6
:10527000C20161E00E94EF1BF40100810E9D402DF0
:1052800011244250470D0D5FC20160E024E573E038
:10529000E72E0E94E31D15CFFA81FF2309F066CFA8
:1052A00039CF802F90E0909581959F4F2E853F8537
:1052B000AC01249FC001259F900D349F900D1124B7
:1052C0006EEF662E680E52CF2F923F924F925F92F2
:1052D0006F927F928F929F92AF92BF92CF92DF9206
:1052E000EF92FF920F931F93DF93CF93CDB7DEB76B
:1052F0002B970FB6F894DEBF0FBECDBF9B878A8772
:105300007A8369835C834B838C0101591F4FF801B9
:105310008081882309F422C18A859B858A5A9F4F00
:105320009B878A8781E0EA85FB85808312921292AF
:10533000E455F040FB87EA87108E9EE4E92EF12CBD
:10534000EE0EFF1EC70161E00E94EF1B8AE0282ECF
:10535000312C8A859B85280E391EB5E26B2E712C67
:10536000680E791EE981FA81F491FD83A7E58A2E02
:10537000912C880E991EF8E5CF2ED12CC80ED91E7F
:10538000E2E54E2E512C480E591E8D5A9F4F9F8399
:105390008E8370E7A72EB12C8A859B85A80EB91E37
:1053A000198708878A859B850E946A248823D1F300
:1053B0009D81992311F410E003C0EE81FF811081DB
:1053C000C70160E040E024E53DE00E947C1E8B8147
:1053D0009C81892B41F0145FC70160E0412F2B8134
:1053E0003C810E947C1EF40110828CE0F6018083D7
:1053F000C70169817A810E94A930F201208130E0E1
:10540000C901880F991F820F931F909581959F4F17
:105410008D5AF4018083EE81FF81208130E0C90143
:10542000880F991F820F931F909581959F4F835DE1
:10543000F6018083F501808184FF04C0C70164ED1B
:105440007DE003C0C70160ED7DE00E94F430F20111
:10545000208130E0C901880F991F820F931F90951A
:1054600081959F4F8D5AF4018083F60180818F5F73
:105470008083EA85FB8582A5882321F0C7016CEC37
:105480007DE003C0C70168EC7DE00E94F430F201CA
:10549000808190E09C01220F331F280F391F309527
:1054A00021953F4F2D5AF4012083F60180818F5FB3
:1054B0008083C70164EC7DE00E94F430C10165E0A7
:1054C0000E943C1B882351F0EA85FB8562A56F5F33
:1054D000C3010E94E82DC3010E94E22DC10164E0D6
:1054E0000E943C1B882399F4E885F9856081262F6A
:1054F00030E040E050E0F50180819181A281B381EC
:1055000082179307A407B50708F16F3FF9F08A8562
:105510009B8581599F4F9B878A878FEFEA85FB8503
:105520008083EF56F040FB87EA87C30160E00E946A
:10553000C62BC3010E94D62D81E0EA85FB85808FB2
:105540000DC08A859B850E94F2222CCFC10166E0A6
:105550000E943C1B882309F425CFF3CF2B960FB66E
:10556000F894DEBF0FBECDBFCF91DF911F910F9199
:10557000FF90EF90DF90CF90BF90AF909F908F9073
:105580007F906F905F904F903F902F90089540E0F4
:1055900050E00E9464290895AF92BF92CF92DF92AB
:1055A000EF920F93CF93DF936C018EE790E0C80EDC
:1055B000D91E82E3F601808381E090E0A0E0B0E0B4
:1055C000B293A293929382936F0185EF9FEFC80EDF
:1055D000D91E8FEFF601808381E99FEFC80ED91E97
:1055E000C6010E949021C6010E94751AC6016FEF84
:1055F0000E94791A4AE0A42EB12CAC0CBD1CC50146
:105600000E942C1BC5010E94641BC60148960E9483
:10561000E61AC601825B9F4F6DE04BE020E10FE090
:105620003EE0E32E0E94AE20E601A596CE010E9448
:10563000F52DC50165E00E943C1B882329F0CE01B1
:1056400060E00E94E82D06C0CE016AED7DE040E0FA
:105650000E94D52BDF91CF910F91EF90DF90CF90EB
:10566000BF90AF9008950F93DC01002309F069C04B
:10567000623009F443C0633030F4662359F061307E
:1056800009F05FC00DC0633009F444C0643009F014
:1056900058C04CC04B3008F04AE056964C9351C06D
:1056A000842F90E0880F991F1F962D913C91509761
:1056B000280F391FF9018591949190969C938E93B0
:1056C0005F97FC014591549114968C911497849F97
:1056D000602D112491966C939197252F3327862F57
:1056E00090E02817390708F4652F14968C911497C9
:1056F000689F802D112492968C9323C014968C91D0
:105700001497489F802D112459968C9359975A9637
:105710002C9317C014968C911497489F802D1124B8
:105720005B968C935B975C962C930BC014968C9134
:105730001497489F802D11245D968C935D975E96FB
:105740002C930F910895FC01222371F4648B8481C2
:10575000489F802D1124858B15A214A213A281E0ED
:10576000878B80939307108E0895FC01662369F45C
:10577000178A158A14A213A2108E109296071092FF
:105780009507109293071092B4000895CF93DF937A
:10579000EC01662319F40E94B52B1982DF91CF9199
:1057A000089560E00E94C62B08950F931F93CF9336
:1057B000DF93EC018B01442371F460E00E94C62B5F
:1057C0001E870D871B8A1A8A81E0898389E08E8B68
:1057D000198E1B8E1D8EDF91CF911F910F91089511
:1057E000CF93DF93EC01662339F58881882321F17B
:1057F0008981882309F5898590E0880F991FEF81B9
:10580000F885E80FF91F859194912FEF8F3F92074C
:1058100011F4188211C09C8790E0880F991FEA85C7
:10582000FB85E80FF91F65917491CE0140E00E945D
:10583000D52B89858F5F8987DF91CF91089560E0AF
:105840000E94F02B08950F93CF93DF93EC01662312
:1058500009F068C08981882309F464C08D89882390
:1058600009F060C0EA89FB89EE0FFF1F4D855E8558
:10587000E40FF51F259134912115310509F040C041
:105880008989813031F41B8A1A8AFA012591349171
:1058900037C019828881882379F0CE0160E00E94A8
:1058A000F02B8A899B89880F991FED85FE85E80F6B
:1058B000F91F2591349124C0CE0160E00E94B52BE0
:1058C00031C0E6E036952795EA95E1F76F70422FF3
:1058D0004F7175E0369527957A95E1F72051CE0105
:1058E00000E00E94332B8A899B8901969B8B8A8BCF
:1058F000880F991FED85FE85E80FF91F25913491DA
:10590000B901769567957695679520FDDACF6F7327
:10591000432FCE0120E00E94A32B8A899B89019608
:105920009B8B8A8BDF91CF910F91089560E00E944D
:10593000232C0895CF93DF93EC01662309F0D6C0A2
:105940008F89882309F4D2C08D89882321F4CE0160
:105950000E94B52BCBC081508D8B8DA1882309F07F
:105960003BC08BA19CA10196880F991FEF8DF8A1D8
:10597000E80FF91F85919491282F27702EA3AC0171
:1059800063E0569547956A95E1F79A013695279514
:10599000892F9927869586958FA32F738C81289FB1
:1059A000202D11242DA34170409397078BA19CA11A
:1059B00001969CA38BA329A130E08217930760F086
:1059C0008AA1882329F0281B31093CA32BA304C0FA
:1059D000CE0160E00E94B52B8DA181508DA3988DE2
:1059E0009F5F988F2FA18C89280F8C85280F2A8381
:1059F0006B8D662369F0892F992787FD909570E05C
:105A00000E949B348C8D869F802D1124820F8A8367
:105A10008A8190E0CB966BE370E00E949B348A838E
:105A20002E892B83698D662379F0888D772767FD12
:105A30007095992787FD90950E949B348A8D869F4B
:105A4000802D1124820F8B836D8D662399F0888DB4
:105A5000992787FD909570E00E949B34CB0162E00E
:105A600070E00E949B349E8D899F802D11249B8124
:105A7000890F8B838B818A300CF089E087FD80E071
:105A80008B838C898F3309F41B82F894EA81F0E0D0
:105A9000E250F24FE491E09394072D8130E08B8146
:105AA000992787FD9095A901489F9001499F300D46
:105AB000589F300D112488A590E0A901489F9001BE
:105AC000499F300D589F300D11248EA1992787FDD5
:105AD0009095AC01249FC001259F900D349F900D9F
